{
  "_format": "hh-sol-artifact-1",
  "contractName": "Lottery",
  "sourceName": "contracts/Lottery.sol",
  "abi": [
    {
      "inputs": [],
      "stateMutability": "nonpayable",
      "type": "constructor"
    },
    {
      "inputs": [],
      "name": "getBalance",
      "outputs": [
        {
          "internalType": "uint256",
          "name": "",
          "type": "uint256"
        }
      ],
      "stateMutability": "view",
      "type": "function"
    },
    {
      "inputs": [],
      "name": "manager",
      "outputs": [
        {
          "internalType": "address",
          "name": "",
          "type": "address"
        }
      ],
      "stateMutability": "view",
      "type": "function"
    },
    {
      "inputs": [],
      "name": "pickWinner",
      "outputs": [],
      "stateMutability": "nonpayable",
      "type": "function"
    },
    {
      "inputs": [
        {
          "internalType": "uint256",
          "name": "",
          "type": "uint256"
        }
      ],
      "name": "players",
      "outputs": [
        {
          "internalType": "address payable",
          "name": "",
          "type": "address"
        }
      ],
      "stateMutability": "view",
      "type": "function"
    },
    {
      "stateMutability": "payable",
      "type": "receive"
    }
  ],
  "bytecode": "0x608060405234801561001057600080fd5b5033600160006101000a81548173ffffffffffffffffffffffffffffffffffffffff021916908373ffffffffffffffffffffffffffffffffffffffff1602179055506107c8806100616000396000f3fe6080604052600436106100435760003560e01c806312065fe0146100c4578063481c6a75146100ef5780635d495aea1461011a578063f71d96cb14610131576100bf565b366100bf5766038d7ea4c68000341461005b57600080fd5b6000339080600181540180825580915050600190039060005260206000200160009091909190916101000a81548173ffffffffffffffffffffffffffffffffffffffff021916908373ffffffffffffffffffffffffffffffffffffffff1602179055005b600080fd5b3480156100d057600080fd5b506100d961016e565b6040516100e691906104e8565b60405180910390f35b3480156100fb57600080fd5b50610104610206565b6040516101119190610544565b60405180910390f35b34801561012657600080fd5b5061012f61022c565b005b34801561013d57600080fd5b5061015860048036038101906101539190610590565b6103af565b60405161016591906105de565b60405180910390f35b6000600160009054906101000a900473ffffffffffffffffffffffffffffffffffffffff1673ffffffffffffffffffffffffffffffffffffffff163373ffffffffffffffffffffffffffffffffffffffff1614610200576040517f08c379a00000000000000000000000000000000000000000000000000000000081526004016101f790610656565b60405180910390fd5b47905090565b600160009054906101000a900473ffffffffffffffffffffffffffffffffffffffff1681565b600160009054906101000a900473ffffffffffffffffffffffffffffffffffffffff1673ffffffffffffffffffffffffffffffffffffffff163373ffffffffffffffffffffffffffffffffffffffff161461028657600080fd5b6002600080549050101561029957600080fd5b60006102a36103ee565b9050600080600080549050836102b991906106a5565b9050600081815481106102cf576102ce6106d6565b5b9060005260206000200160009054906101000a900473ffffffffffffffffffffffffffffffffffffffff1691508173ffffffffffffffffffffffffffffffffffffffff166108fc61031e61016e565b9081150290604051600060405180830381858888f19350505050158015610349573d6000803e3d6000fd5b50600067ffffffffffffffff81111561036557610364610705565b5b6040519080825280602002602001820160405280156103935781602001602082028036833780820191505090505b50600090805190602001906103a9929190610428565b50505050565b600081815481106103bf57600080fd5b906000526020600020016000915054906101000a900473ffffffffffffffffffffffffffffffffffffffff1681565b6000444260008054905060405160200161040a93929190610755565b6040516020818303038152906040528051906020012060001c905090565b8280548282559060005260206000209081019282156104a1579160200282015b828111156104a05782518260006101000a81548173ffffffffffffffffffffffffffffffffffffffff021916908373ffffffffffffffffffffffffffffffffffffffff16021790555091602001919060010190610448565b5b5090506104ae91906104b2565b5090565b5b808211156104cb5760008160009055506001016104b3565b5090565b6000819050919050565b6104e2816104cf565b82525050565b60006020820190506104fd60008301846104d9565b92915050565b600073ffffffffffffffffffffffffffffffffffffffff82169050919050565b600061052e82610503565b9050919050565b61053e81610523565b82525050565b60006020820190506105596000830184610535565b92915050565b600080fd5b61056d816104cf565b811461057857600080fd5b50565b60008135905061058a81610564565b92915050565b6000602082840312156105a6576105a561055f565b5b60006105b48482850161057b565b91505092915050565b60006105c882610503565b9050919050565b6105d8816105bd565b82525050565b60006020820190506105f360008301846105cf565b92915050565b600082825260208201905092915050565b7f596f7520617265206e6f74206d616e6761657200000000000000000000000000600082015250565b60006106406013836105f9565b915061064b8261060a565b602082019050919050565b6000602082019050818103600083015261066f81610633565b9050919050565b7f4e487b7100000000000000000000000000000000000000000000000000000000600052601260045260246000fd5b60006106b0826104cf565b91506106bb836104cf565b9250826106cb576106ca610676565b5b828206905092915050565b7f4e487b7100000000000000000000000000000000000000000000000000000000600052603260045260246000fd5b7f4e487b7100000000000000000000000000000000000000000000000000000000600052604160045260246000fd5b6000819050919050565b61074f61074a826104cf565b610734565b82525050565b6000610761828661073e565b602082019150610771828561073e565b602082019150610781828461073e565b60208201915081905094935050505056fea26469706673582212201a8ce14362d97e90fa82513c5f2b7fe3fef8e0bb9c0cd4d4b60fd9431504c78e64736f6c634300080e0033",
  "linkReferences": {},
  "deployedLinkReferences": {}
}